{
    "_format": "hh-sol-artifact-1",
    "contractName": "CampaignLauncher",
    "sourceName": "contracts/campaigns/CampaignLauncher.sol",
    "abi": [
        {
            "inputs": [
                {
                    "internalType": "contract IToken",
                    "name": "_token",
                    "type": "address"
                },
                {
                    "internalType": "contract IDonor",
                    "name": "_donor",
                    "type": "address"
                },
                {
                    "internalType": "uint8",
                    "name": "_maxOpenReviews",
                    "type": "uint8"
                },
                {
                    "internalType": "uint8",
                    "name": "_maxOpenDonations",
                    "type": "uint8"
                }
            ],
            "stateMutability": "nonpayable",
            "type": "constructor"
        },
        {
            "anonymous": false,
            "inputs": [
                {
                    "indexed": true,
                    "internalType": "address",
                    "name": "previousOwner",
                    "type": "address"
                },
                {
                    "indexed": true,
                    "internalType": "address",
                    "name": "newOwner",
                    "type": "address"
                }
            ],
            "name": "OwnershipTransferred",
            "type": "event"
        },
        {
            "inputs": [
                {
                    "internalType": "bytes32",
                    "name": "",
                    "type": "bytes32"
                }
            ],
            "name": "campaigns",
            "outputs": [
                {
                    "internalType": "uint256",
                    "name": "",
                    "type": "uint256"
                }
            ],
            "stateMutability": "view",
            "type": "function"
        },
        {
            "inputs": [
                {
                    "internalType": "uint256",
                    "name": "",
                    "type": "uint256"
                }
            ],
            "name": "donationVotes",
            "outputs": [
                {
                    "internalType": "uint256",
                    "name": "",
                    "type": "uint256"
                }
            ],
            "stateMutability": "view",
            "type": "function"
        },
        {
            "inputs": [
                {
                    "internalType": "uint256",
                    "name": "_tokenId",
                    "type": "uint256"
                }
            ],
            "name": "finalize",
            "outputs": [],
            "stateMutability": "nonpayable",
            "type": "function"
        },
        {
            "inputs": [
                {
                    "internalType": "uint256",
                    "name": "_tokenId",
                    "type": "uint256"
                }
            ],
            "name": "getDonationVote",
            "outputs": [
                {
                    "internalType": "uint256",
                    "name": "voteId",
                    "type": "uint256"
                }
            ],
            "stateMutability": "view",
            "type": "function"
        },
        {
            "inputs": [],
            "name": "getNextDonationToken",
            "outputs": [
                {
                    "internalType": "uint256",
                    "name": "tokenId",
                    "type": "uint256"
                },
                {
                    "internalType": "bytes32",
                    "name": "hash",
                    "type": "bytes32"
                },
                {
                    "internalType": "uint256",
                    "name": "size",
                    "type": "uint256"
                },
                {
                    "internalType": "uint256",
                    "name": "limit",
                    "type": "uint256"
                }
            ],
            "stateMutability": "view",
            "type": "function"
        },
        {
            "inputs": [],
            "name": "getNextReviewCampaign",
            "outputs": [
                {
                    "internalType": "uint256",
                    "name": "tokenId",
                    "type": "uint256"
                },
                {
                    "internalType": "bytes32",
                    "name": "hash",
                    "type": "bytes32"
                },
                {
                    "internalType": "uint256",
                    "name": "size",
                    "type": "uint256"
                },
                {
                    "internalType": "uint256",
                    "name": "limit",
                    "type": "uint256"
                }
            ],
            "stateMutability": "view",
            "type": "function"
        },
        {
            "inputs": [],
            "name": "maxOpenDonations",
            "outputs": [
                {
                    "internalType": "uint8",
                    "name": "",
                    "type": "uint8"
                }
            ],
            "stateMutability": "view",
            "type": "function"
        },
        {
            "inputs": [],
            "name": "maxOpenReviews",
            "outputs": [
                {
                    "internalType": "uint8",
                    "name": "",
                    "type": "uint8"
                }
            ],
            "stateMutability": "view",
            "type": "function"
        },
        {
            "inputs": [],
            "name": "owner",
            "outputs": [
                {
                    "internalType": "address",
                    "name": "",
                    "type": "address"
                }
            ],
            "stateMutability": "view",
            "type": "function"
        },
        {
            "inputs": [],
            "name": "renounceOwnership",
            "outputs": [],
            "stateMutability": "nonpayable",
            "type": "function"
        },
        {
            "inputs": [
                {
                    "internalType": "bytes32",
                    "name": "_hash",
                    "type": "bytes32"
                }
            ],
            "name": "review",
            "outputs": [],
            "stateMutability": "nonpayable",
            "type": "function"
        },
        {
            "inputs": [
                {
                    "internalType": "address",
                    "name": "_campaignDonationKeeper",
                    "type": "address"
                }
            ],
            "name": "setCampaignDonationKeeper",
            "outputs": [],
            "stateMutability": "nonpayable",
            "type": "function"
        },
        {
            "inputs": [
                {
                    "internalType": "address",
                    "name": "_campaignReviewKeeper",
                    "type": "address"
                }
            ],
            "name": "setCampaignReviewKeeper",
            "outputs": [],
            "stateMutability": "nonpayable",
            "type": "function"
        },
        {
            "inputs": [
                {
                    "internalType": "contract IDonor",
                    "name": "_donor",
                    "type": "address"
                }
            ],
            "name": "setDonorInterface",
            "outputs": [],
            "stateMutability": "nonpayable",
            "type": "function"
        },
        {
            "inputs": [
                {
                    "internalType": "uint8",
                    "name": "_maxOpenDonations",
                    "type": "uint8"
                }
            ],
            "name": "setMaxOpenDonations",
            "outputs": [],
            "stateMutability": "nonpayable",
            "type": "function"
        },
        {
            "inputs": [
                {
                    "internalType": "uint8",
                    "name": "_maxOpenReviews",
                    "type": "uint8"
                }
            ],
            "name": "setMaxOpenReviews",
            "outputs": [],
            "stateMutability": "nonpayable",
            "type": "function"
        },
        {
            "inputs": [
                {
                    "internalType": "contract IToken",
                    "name": "_token",
                    "type": "address"
                }
            ],
            "name": "setTokenInterface",
            "outputs": [],
            "stateMutability": "nonpayable",
            "type": "function"
        },
        {
            "inputs": [
                {
                    "internalType": "string",
                    "name": "_campaignName",
                    "type": "string"
                },
                {
                    "internalType": "uint256",
                    "name": "_goal",
                    "type": "uint256"
                },
                {
                    "internalType": "uint256",
                    "name": "_startDate",
                    "type": "uint256"
                },
                {
                    "internalType": "uint256",
                    "name": "_endDate",
                    "type": "uint256"
                },
                {
                    "internalType": "string",
                    "name": "_cid",
                    "type": "string"
                }
            ],
            "name": "submit",
            "outputs": [],
            "stateMutability": "nonpayable",
            "type": "function"
        },
        {
            "inputs": [
                {
                    "internalType": "address",
                    "name": "newOwner",
                    "type": "address"
                }
            ],
            "name": "transferOwnership",
            "outputs": [],
            "stateMutability": "nonpayable",
            "type": "function"
        }
    ],
    "bytecode": "0x6080604052732c2e5397f336c29a991e9e1759085f9940ace347600160006101000a81548173ffffffffffffffffffffffffffffffffffffffff021916908373ffffffffffffffffffffffffffffffffffffffff16021790555034801561006557600080fd5b50604051620029f6380380620029f68339818101604052608081101561008a57600080fd5b810190808051906020019092919080519060200190929190805190602001909291908051906020019092919050505060006100c961022860201b60201c565b9050806000806101000a81548173ffffffffffffffffffffffffffffffffffffffff021916908373ffffffffffffffffffffffffffffffffffffffff1602179055508073ffffffffffffffffffffffffffffffffffffffff16600073ffffffffffffffffffffffffffffffffffffffff167f8be0079c531659141344cd1fd0a4f28419497f9722a3daafe3b4186f6b6457e060405160405180910390a35083600c60026101000a81548173ffffffffffffffffffffffffffffffffffffffff021916908373ffffffffffffffffffffffffffffffffffffffff16021790555082600d60006101000a81548173ffffffffffffffffffffffffffffffffffffffff021916908373ffffffffffffffffffffffffffffffffffffffff16021790555081600c60006101000a81548160ff021916908360ff16021790555080600c60016101000a81548160ff021916908360ff16021790555050505050610230565b600033905090565b6127b680620002406000396000f3fe608060405234801561001057600080fd5b50600436106101215760003560e01c80639eca2f1e116100ad578063c271d5e211610071578063c271d5e2146104f3578063e15559ef14610526578063e19d26e714610557578063f2fde38b1461059b578063fd3edcfa146105df57610121565b80639eca2f1e146103b8578063afcb9191146103fa578063bb4ba49f1461043c578063bbdb869d14610480578063bd71c92c146104b157610121565b806370872bc0116100f457806370872bc0146102e7578063715018a61461032b5780638da5cb5b146103355780638e991419146103695780639028d8b01461038a57610121565b806305261aea1461012657806322f1d7bf146101545780632ea5d5f614610175578063410919c8146101b9575b600080fd5b6101526004803603602081101561013c57600080fd5b8101908080359060200190929190505050610612565b005b61015c610cb3565b604051808260ff16815260200191505060405180910390f35b6101b76004803603602081101561018b57600080fd5b81019080803573ffffffffffffffffffffffffffffffffffffffff169060200190929190505050610cc6565b005b6102e5600480360360a08110156101cf57600080fd5b81019080803590602001906401000000008111156101ec57600080fd5b8201836020820111156101fe57600080fd5b8035906020019184600183028401116401000000008311171561022057600080fd5b90919293919293908035906020019092919080359060200190929190803590602001909291908035906020019064010000000081111561025f57600080fd5b82018360208201111561027157600080fd5b8035906020019184600183028401116401000000008311171561029357600080fd5b91908080601f016020809104026020016040519081016040528093929190818152602001838380828437600081840152601f19601f820116905080830192505050505050509192919290505050610db9565b005b610329600480360360208110156102fd57600080fd5b81019080803573ffffffffffffffffffffffffffffffffffffffff1690602001909291905050506111e4565b005b6103336112d7565b005b61033d611444565b604051808273ffffffffffffffffffffffffffffffffffffffff16815260200191505060405180910390f35b61037161146d565b604051808260ff16815260200191505060405180910390f35b6103b6600480360360208110156103a057600080fd5b8101908080359060200190929190505050611480565b005b6103e4600480360360208110156103ce57600080fd5b8101908080359060200190929190505050611d26565b6040518082815260200191505060405180910390f35b6104266004803603602081101561041057600080fd5b8101908080359060200190929190505050611d3e565b6040518082815260200191505060405180910390f35b61047e6004803603602081101561045257600080fd5b81019080803573ffffffffffffffffffffffffffffffffffffffff169060200190929190505050611d56565b005b6104af6004803603602081101561049657600080fd5b81019080803560ff169060200190929190505050611e49565b005b6104dd600480360360208110156104c757600080fd5b8101908080359060200190929190505050611f16565b6040518082815260200191505060405180910390f35b6104fb611f33565b6040518085815260200184815260200183815260200182815260200194505050505060405180910390f35b6105556004803603602081101561053c57600080fd5b81019080803560ff169060200190929190505050612081565b005b6105996004803603602081101561056d57600080fd5b81019080803573ffffffffffffffffffffffffffffffffffffffff16906020019092919050505061214e565b005b6105dd600480360360208110156105b157600080fd5b81019080803573ffffffffffffffffffffffffffffffffffffffff169060200190929190505050612241565b005b6105e7612433565b6040518085815260200184815260200183815260200182815260200194505050505060405180910390f35b61061a612581565b73ffffffffffffffffffffffffffffffffffffffff16610638611444565b73ffffffffffffffffffffffffffffffffffffffff1614806106ae575061065d612581565b73ffffffffffffffffffffffffffffffffffffffff16600f60009054906101000a900473ffffffffffffffffffffffffffffffffffffffff1673ffffffffffffffffffffffffffffffffffffffff16145b610703576040517f08c379a000000000000000000000000000000000000000000000000000000000815260040180806020018281038252602b815260200180612756602b913960400191505060405180910390fd5b600c60029054906101000a900473ffffffffffffffffffffffffffffffffffffffff1673ffffffffffffffffffffffffffffffffffffffff16634f558e79826040518263ffffffff1660e01b81526004018082815260200191505060206040518083038186803b15801561077657600080fd5b505afa15801561078a573d6000803e3d6000fd5b505050506040513d60208110156107a057600080fd5b8101908080519060200190929190505050610823576040517f08c379a00000000000000000000000000000000000000000000000000000000081526004018080602001828103825260178152602001807f43616d706169676e20646f6573206e6f7420657869737400000000000000000081525060200191505060405180910390fd5b60006003600083815260200190815260200160002054116108ac576040517f08c379a000000000000000000000000000000000000000000000000000000000815260040180806020018281038252601b8152602001807f43616d706169676e206e6f7420696e20646f6e6f727320706f6f6c000000000081525060200191505060405180910390fd5b6000600873__$37e8ef4dbeec190929a55cbe3c0b8e284c$__639139cba990916040518263ffffffff1660e01b815260040180828152602001915050604080518083038186803b1580156108ff57600080fd5b505af4158015610913573d6000803e3d6000fd5b505050506040513d604081101561092957600080fd5b8101908080519060200190929190805190602001909291905050505090508181146109bc576040517f08c379a000000000000000000000000000000000000000000000000000000000815260040180806020018281038252601e8152602001807f43616d706169676e206e6f7420696e20646f6e6174696f6e207175657565000081525060200191505060405180910390fd5b600080600160009054906101000a900473ffffffffffffffffffffffffffffffffffffffff1673ffffffffffffffffffffffffffffffffffffffff16635a55c1f060036000878152602001908152602001600020546040518263ffffffff1660e01b81526004018082815260200191505060006040518083038186803b158015610a4557600080fd5b505afa158015610a59573d6000803e3d6000fd5b505050506040513d6000823e3d601f19601f82011682018060405250610140811015610a8457600080fd5b8101908080519060200190929190805190602001909291908051906020019092919080519060200190929190805190602001909291908051906020019092919080519060200190929190805190602001909291908051906020019092919080516040519392919084640100000000821115610afe57600080fd5b83820191506020820185811115610b1457600080fd5b8251866001820283011164010000000082111715610b3157600080fd5b8083526020830192505050908051906020019080838360005b83811015610b65578082015181840152602081019050610b4a565b50505050905090810190601f168015610b925780820380516001836020036101000a031916815260200191505b506040525050505050505050505050915091508115610c19576040517f08c379a00000000000000000000000000000000000000000000000000000000081526004018080602001828103825260208152602001807f43616d706169676e207374696c6c20696e20766f74696e672073657373696f6e81525060200191505060405180910390fd5b8015610cad57600d60009054906101000a900473ffffffffffffffffffffffffffffffffffffffff1673ffffffffffffffffffffffffffffffffffffffff1663f14faf6f856040518263ffffffff1660e01b815260040180828152602001915050600060405180830381600087803b158015610c9457600080fd5b505af1158015610ca8573d6000803e3d6000fd5b505050505b50505050565b600c60019054906101000a900460ff1681565b610cce612581565b73ffffffffffffffffffffffffffffffffffffffff16610cec611444565b73ffffffffffffffffffffffffffffffffffffffff1614610d75576040517f08c379a00000000000000000000000000000000000000000000000000000000081526004018080602001828103825260208152602001807f4f776e61626c653a2063616c6c6572206973206e6f7420746865206f776e657281525060200191505060405180910390fd5b80600d60006101000a81548173ffffffffffffffffffffffffffffffffffffffff021916908373ffffffffffffffffffffffffffffffffffffffff16021790555050565b6000610e0887878080601f016020809104026020016040519081016040528093929190818152602001838380828437600081840152601f19601f82011690508083019250505050505050612589565b90506000600260008381526020019081526020016000205414610e93576040517f08c379a00000000000000000000000000000000000000000000000000000000081526004018080602001828103825260178152602001807f43616d706169676e20616c72656164792065786973747300000000000000000081525060200191505060405180910390fd5b6000600160009054906101000a900473ffffffffffffffffffffffffffffffffffffffff1673ffffffffffffffffffffffffffffffffffffffff1663d5db2c806001604051602001808263ffffffff1660e01b81526004019150506040516020818303038152906040528a8a6040518463ffffffff1660e01b8152600401808060200180602001838103835286818151815260200191508051906020019080838360005b83811015610f52578082015181840152602081019050610f37565b50505050905090810190601f168015610f7f5780820380516001836020036101000a031916815260200191505b508381038252858582818152602001925080828437600081840152601f19601f82011690508083019250505095505050505050602060405180830381600087803b158015610fcc57600080fd5b505af1158015610fe0573d6000803e3d6000fd5b505050506040513d6020811015610ff657600080fd5b81019080805190602001909291905050509050600c60029054906101000a900473ffffffffffffffffffffffffffffffffffffffff1673ffffffffffffffffffffffffffffffffffffffff1663f936daf361104f612581565b83858a8a8a8a6040518863ffffffff1660e01b8152600401808873ffffffffffffffffffffffffffffffffffffffff16815260200187815260200186815260200185815260200184815260200183815260200180602001828103825283818151815260200191508051906020019080838360005b838110156110de5780820151818401526020810190506110c3565b50505050905090810190601f16801561110b5780820380516001836020036101000a031916815260200191505b5098505050505050505050600060405180830381600087803b15801561113057600080fd5b505af1158015611144573d6000803e3d6000fd5b50505050600473__$37e8ef4dbeec190929a55cbe3c0b8e284c$__63f33934c9909183856040518463ffffffff1660e01b815260040180848152602001838152602001828152602001935050505060006040518083038186803b1580156111aa57600080fd5b505af41580156111be573d6000803e3d6000fd5b505050508060026000848152602001908152602001600020819055505050505050505050565b6111ec612581565b73ffffffffffffffffffffffffffffffffffffffff1661120a611444565b73ffffffffffffffffffffffffffffffffffffffff1614611293576040517f08c379a00000000000000000000000000000000000000000000000000000000081526004018080602001828103825260208152602001807f4f776e61626c653a2063616c6c6572206973206e6f7420746865206f776e657281525060200191505060405180910390fd5b80600c60026101000a81548173ffffffffffffffffffffffffffffffffffffffff021916908373ffffffffffffffffffffffffffffffffffffffff16021790555050565b6112df612581565b73ffffffffffffffffffffffffffffffffffffffff166112fd611444565b73ffffffffffffffffffffffffffffffffffffffff1614611386576040517f08c379a00000000000000000000000000000000000000000000000000000000081526004018080602001828103825260208152602001807f4f776e61626c653a2063616c6c6572206973206e6f7420746865206f776e657281525060200191505060405180910390fd5b600073ffffffffffffffffffffffffffffffffffffffff1660008054906101000a900473ffffffffffffffffffffffffffffffffffffffff1673ffffffffffffffffffffffffffffffffffffffff167f8be0079c531659141344cd1fd0a4f28419497f9722a3daafe3b4186f6b6457e060405160405180910390a360008060006101000a81548173ffffffffffffffffffffffffffffffffffffffff021916908373ffffffffffffffffffffffffffffffffffffffff160217905550565b60008060009054906101000a900473ffffffffffffffffffffffffffffffffffffffff16905090565b600c60009054906101000a900460ff1681565b611488612581565b73ffffffffffffffffffffffffffffffffffffffff166114a6611444565b73ffffffffffffffffffffffffffffffffffffffff16148061151c57506114cb612581565b73ffffffffffffffffffffffffffffffffffffffff16600e60009054906101000a900473ffffffffffffffffffffffffffffffffffffffff1673ffffffffffffffffffffffffffffffffffffffff16145b611571576040517f08c379a00000000000000000000000000000000000000000000000000000000081526004018080602001828103825260298152602001806127086029913960400191505060405180910390fd5b600060026000838152602001908152602001600020549050600081116115ff576040517f08c379a00000000000000000000000000000000000000000000000000000000081526004018080602001828103825260178152602001807f63616d706169676e20646f6573206e6f7420657869737400000000000000000081525060200191505060405180910390fd5b600080600160009054906101000a900473ffffffffffffffffffffffffffffffffffffffff1673ffffffffffffffffffffffffffffffffffffffff16635a55c1f0846040518263ffffffff1660e01b81526004018082815260200191505060006040518083038186803b15801561167557600080fd5b505afa158015611689573d6000803e3d6000fd5b505050506040513d6000823e3d601f19601f820116820180604052506101408110156116b457600080fd5b810190808051906020019092919080519060200190929190805190602001909291908051906020019092919080519060200190929190805190602001909291908051906020019092919080519060200190929190805190602001909291908051604051939291908464010000000082111561172e57600080fd5b8382019150602082018581111561174457600080fd5b825186600182028301116401000000008211171561176157600080fd5b8083526020830192505050908051906020019080838360005b8381101561179557808201518184015260208101905061177a565b50505050905090810190601f1680156117c25780820380516001836020036101000a031916815260200191505b506040525050505050505050505050915091508115611849576040517f08c379a00000000000000000000000000000000000000000000000000000000081526004018080602001828103825260208152602001807f43616d706169676e207374696c6c20696e20766f74696e672073657373696f6e81525060200191505060405180910390fd5b6000600473__$37e8ef4dbeec190929a55cbe3c0b8e284c$__639139cba990916040518263ffffffff1660e01b815260040180828152602001915050604080518083038186803b15801561189c57600080fd5b505af41580156118b0573d6000803e3d6000fd5b505050506040513d60408110156118c657600080fd5b810190808051906020019092919080519060200190929190505050509050808414611959576040517f08c379a000000000000000000000000000000000000000000000000000000000815260040180806020018281038252601c8152602001807f43616d706169676e206e6f7420696e207265766965772071756575650000000081525060200191505060405180910390fd5b60006003600086815260200190815260200160002054146119c5576040517f08c379a00000000000000000000000000000000000000000000000000000000081526004018080602001828103825260258152602001806127316025913960400191505060405180910390fd5b8115611d0857600873__$37e8ef4dbeec190929a55cbe3c0b8e284c$__63f33934c9909186886040518463ffffffff1660e01b815260040180848152602001838152602001828152602001935050505060006040518083038186803b158015611a2d57600080fd5b505af4158015611a41573d6000803e3d6000fd5b505050506000600160009054906101000a900473ffffffffffffffffffffffffffffffffffffffff1673ffffffffffffffffffffffffffffffffffffffff1663d5db2c806001604051602001808263ffffffff1660e01b81526004019150506040516020818303038152906040526040518060400160405280601481526020017f446f6e61746520746f2043616d706169676e2023000000000000000000000000815250611aee8961259a565b6040516020018083805190602001908083835b60208310611b245780518252602082019150602081019050602083039250611b01565b6001836020036101000a03801982511681845116808217855250505050505090500182805190602001908083835b60208310611b755780518252602082019150602081019050602083039250611b52565b6001836020036101000a038019825116818451168082178552505050505050905001925050506040516020818303038152906040526040518363ffffffff1660e01b8152600401808060200180602001838103835285818151815260200191508051906020019080838360005b83811015611bfd578082015181840152602081019050611be2565b50505050905090810190601f168015611c2a5780820380516001836020036101000a031916815260200191505b50838103825284818151815260200191508051906020019080838360005b83811015611c63578082015181840152602081019050611c48565b50505050905090810190601f168015611c905780820380516001836020036101000a031916815260200191505b50945050505050602060405180830381600087803b158015611cb157600080fd5b505af1158015611cc5573d6000803e3d6000fd5b505050506040513d6020811015611cdb57600080fd5b81019080805190602001909291905050509050806003600087815260200190815260200160002081905550505b60026000868152602001908152602001600020600090555050505050565b60026020528060005260406000206000915090505481565b60036020528060005260406000206000915090505481565b611d5e612581565b73ffffffffffffffffffffffffffffffffffffffff16611d7c611444565b73ffffffffffffffffffffffffffffffffffffffff1614611e05576040517f08c379a00000000000000000000000000000000000000000000000000000000081526004018080602001828103825260208152602001807f4f776e61626c653a2063616c6c6572206973206e6f7420746865206f776e657281525060200191505060405180910390fd5b80600f60006101000a81548173ffffffffffffffffffffffffffffffffffffffff021916908373ffffffffffffffffffffffffffffffffffffffff16021790555050565b611e51612581565b73ffffffffffffffffffffffffffffffffffffffff16611e6f611444565b73ffffffffffffffffffffffffffffffffffffffff1614611ef8576040517f08c379a00000000000000000000000000000000000000000000000000000000081526004018080602001828103825260208152602001807f4f776e61626c653a2063616c6c6572206973206e6f7420746865206f776e657281525060200191505060405180910390fd5b80600c60006101000a81548160ff021916908360ff16021790555050565b600060036000838152602001908152602001600020549050919050565b600080600080600473__$37e8ef4dbeec190929a55cbe3c0b8e284c$__63569bb34690916040518263ffffffff1660e01b815260040180828152602001915050604080518083038186803b158015611f8a57600080fd5b505af4158015611f9e573d6000803e3d6000fd5b505050506040513d6040811015611fb457600080fd5b8101908080519060200190929190805190602001909291905050508094508195505050600473__$37e8ef4dbeec190929a55cbe3c0b8e284c$__63b603ad1290916040518263ffffffff1660e01b81526004018082815260200191505060206040518083038186803b15801561202957600080fd5b505af415801561203d573d6000803e3d6000fd5b505050506040513d602081101561205357600080fd5b81019080805190602001909291905050509150600c60009054906101000a900460ff1660ff16905090919293565b612089612581565b73ffffffffffffffffffffffffffffffffffffffff166120a7611444565b73ffffffffffffffffffffffffffffffffffffffff1614612130576040517f08c379a00000000000000000000000000000000000000000000000000000000081526004018080602001828103825260208152602001807f4f776e61626c653a2063616c6c6572206973206e6f7420746865206f776e657281525060200191505060405180910390fd5b80600c60016101000a81548160ff021916908360ff16021790555050565b612156612581565b73ffffffffffffffffffffffffffffffffffffffff16612174611444565b73ffffffffffffffffffffffffffffffffffffffff16146121fd576040517f08c379a00000000000000000000000000000000000000000000000000000000081526004018080602001828103825260208152602001807f4f776e61626c653a2063616c6c6572206973206e6f7420746865206f776e657281525060200191505060405180910390fd5b80600e60006101000a81548173ffffffffffffffffffffffffffffffffffffffff021916908373ffffffffffffffffffffffffffffffffffffffff16021790555050565b612249612581565b73ffffffffffffffffffffffffffffffffffffffff16612267611444565b73ffffffffffffffffffffffffffffffffffffffff16146122f0576040517f08c379a00000000000000000000000000000000000000000000000000000000081526004018080602001828103825260208152602001807f4f776e61626c653a2063616c6c6572206973206e6f7420746865206f776e657281525060200191505060405180910390fd5b600073ffffffffffffffffffffffffffffffffffffffff168173ffffffffffffffffffffffffffffffffffffffff161415612376576040517f08c379a00000000000000000000000000000000000000000000000000000000081526004018080602001828103825260268152602001806126e26026913960400191505060405180910390fd5b8073ffffffffffffffffffffffffffffffffffffffff1660008054906101000a900473ffffffffffffffffffffffffffffffffffffffff1673ffffffffffffffffffffffffffffffffffffffff167f8be0079c531659141344cd1fd0a4f28419497f9722a3daafe3b4186f6b6457e060405160405180910390a3806000806101000a81548173ffffffffffffffffffffffffffffffffffffffff021916908373ffffffffffffffffffffffffffffffffffffffff16021790555050565b600080600080600873__$37e8ef4dbeec190929a55cbe3c0b8e284c$__63569bb34690916040518263ffffffff1660e01b815260040180828152602001915050604080518083038186803b15801561248a57600080fd5b505af415801561249e573d6000803e3d6000fd5b505050506040513d60408110156124b457600080fd5b8101908080519060200190929190805190602001909291905050508094508195505050600873__$37e8ef4dbeec190929a55cbe3c0b8e284c$__63b603ad1290916040518263ffffffff1660e01b81526004018082815260200191505060206040518083038186803b15801561252957600080fd5b505af415801561253d573d6000803e3d6000fd5b505050506040513d602081101561255357600080fd5b81019080805190602001909291905050509150600c60019054906101000a900460ff1660ff16905090919293565b600033905090565b600081805190602001209050919050565b606060008214156125e2576040518060400160405280600181526020017f300000000000000000000000000000000000000000000000000000000000000081525090506126dc565b600082905060005b6000821461260c578080600101915050600a828161260457fe5b0491506125ea565b60608167ffffffffffffffff8111801561262557600080fd5b506040519080825280601f01601f1916602001820160405280156126585781602001600182028036833780820191505090505b50905060006001830390508593505b600084146126d457600a848161267957fe5b0660300160f81b8282806001900393508151811061269357fe5b60200101907effffffffffffffffffffffffffffffffffffffffffffffffffffffffffffff1916908160001a905350600a84816126cc57fe5b049350612667565b819450505050505b91905056fe4f776e61626c653a206e6577206f776e657220697320746865207a65726f206164647265737343616c6c6572206973206e6f7420746865206f776e6572206e6f7220726576696577206b656570657243616d706169676e20616c726561647920616464656420746f20646f6e6f727320706f6f6c43616c6c6572206973206e6f7420746865206f776e6572206e6f7220646f6e6174696f6e206b6565706572a2646970667358221220722a8294b85e69bbb8d6b101cfec35a9ee1e0f94257f4cdbc5815e27f7e8e64a64736f6c634300060c0033",
    "linkReferences": {
        "contracts/campaigns/CampaignLauncher.sol": {
            "QueueLib": [
                {
                    "length": 20,
                    "start": 2802
                },
                {
                    "length": 20,
                    "start": 5004
                },
                {
                    "length": 20,
                    "start": 6799
                },
                {
                    "length": 20,
                    "start": 7183
                },
                {
                    "length": 20,
                    "start": 8573
                },
                {
                    "length": 20,
                    "start": 8731
                },
                {
                    "length": 20,
                    "start": 9853
                },
                {
                    "length": 20,
                    "start": 10011
                }
            ]
        }
    },
    "deployedLinkReferences": {
        "contracts/campaigns/CampaignLauncher.sol": {
            "QueueLib": [
                {
                    "length": 20,
                    "start": 2226
                },
                {
                    "length": 20,
                    "start": 4428
                },
                {
                    "length": 20,
                    "start": 6223
                },
                {
                    "length": 20,
                    "start": 6607
                },
                {
                    "length": 20,
                    "start": 7997
                },
                {
                    "length": 20,
                    "start": 8155
                },
                {
                    "length": 20,
                    "start": 9277
                },
                {
                    "length": 20,
                    "start": 9435
                }
            ]
        }
    }
}